:100000000C942A000C9447000C9447000C94470071
:100010000C9447000C9447000C9447000C94470044
:100020000C9447000C9447000C9447000C94470034
:100030000C9447000C9447000C9447000C94470024
:100040000C9447000C9447000C9447000C94470014
:100050000C94470011241FBECFE5D8E0DEBFCDBF12
:1000600010E0A0E6B0E0E4E3FCE002C005900D92F1
:10007000A439B107D9F710E0A4E9B0E001C01D929E
:10008000AC39B107E1F70E941A050C9418060C94DC
:100090000000282F562F6AE00E94D605382F822FA5
:1000A0000E94D605492F513021F0523009F076C018
:1000B0003AC03230B9F0333020F4313009F06EC03C
:1000C00006C03330D1F0343009F068C021C02AB303
:1000D00081E090E002C0880F991F4A95E2F7282B33
:1000E0002ABB089527B381E090E002C0880F991FD2
:1000F0004A95E2F7282B27BB089524B381E090E0CE
:1001000002C0880F991F4A95E2F7282B24BB089557
:1001100021B381E090E002C0880F991F4A95E2F771
:10012000282B21BB08953230B1F0333018F4313030
:10013000A9F505C03330D9F0343081F524C02AB395
:1001400081E090E002C0880F991F4A95E2F7809500
:1001500082238ABB089527B381E090E002C0880F14
:10016000991F4A95E2F78095822387BB089524B3AF
:1001700081E090E002C0880F991F4A95E2F78095D0
:10018000822384BB089521B381E090E002C0880FF0
:10019000991F4A95E2F78095822381BB08956130CB
:1001A00019F0623061F518C0823069F0833018F4BC
:1001B000813029F505C0833049F0843001F509C04C
:1001C0008FEF8ABB08958FEF87BB08958FEF84BBB5
:1001D00008958FEF81BB0895823061F0833018F469
:1001E000813069F405C0833039F0843041F406C0B1
:1001F0001ABA089517BA089514BA089511BA08954D
:10020000282F562F6AE00E94D605382F822F0E9491
:10021000D605492F513021F0523009F076C03AC04E
:100220003230B9F0333020F4313009F06EC006C0FE
:100230003330D1F0343009F068C021C02BB381E0F5
:1002400090E002C0880F991F4A95E2F7282B2BBB3C
:10025000089528B381E090E002C0880F991F4A9565
:10026000E2F7282B28BB089525B381E090E002C077
:10027000880F991F4A95E2F7282B25BB089522B3D2
:1002800081E090E002C0880F991F4A95E2F7282B81
:1002900022BB08953230B1F0333018F43130A9F573
:1002A00005C03330D9F0343081F524C02BB381E060
:1002B00090E002C0880F991F4A95E2F7809582234B
:1002C0008BBB089528B381E090E002C0880F991F8E
:1002D0004A95E2F78095822388BB089525B381E093
:1002E00090E002C0880F991F4A95E2F7809582231B
:1002F00085BB089522B381E090E002C0880F991F6A
:100300004A95E2F78095822382BB0895823061F09E
:10031000833018F4813069F405C0833039F08430BB
:1003200041F406C06BBB089568BB089565BB089592
:1003300062BB0895282F6AE00E94D605392F822FCC
:100340000E94D6058230A9F0833018F4813089F5F7
:1003500005C08330C9F0843061F521C02BB381E042
:1003600090E002C0880F991F3A95E2F728272BBB2F
:10037000089528B381E090E002C0880F991F3A9554
:10038000E2F7282728BB089525B381E090E002C05A
:10039000880F991F3A95E2F7282725BB089522B3C5
:1003A00081E090E002C0880F991F3A95E2F7282774
:1003B00022BB0895282F6AE00E94D605392F822F8C
:1003C0000E94D605823069F0833018F4813029F418
:1003D00006C0833041F0843079F080E0089589B31D
:1003E00003C086B301C083B390E002C095958795A2
:1003F0003A95E2F78170089580B390E002C0959538
:1004000087953A95E2F781700895282F562F6AE074
:100410000E94D605382F822F0E94D605492F5130D1
:1004200021F0523009F076C03AC03230B9F03330A2
:1004300020F4313009F06EC006C03330D1F03430D2
:1004400009F068C021C02BB381E090E002C0880FA2
:10045000991F4A95E2F7282B2BBB089528B381E01A
:1004600090E002C0880F991F4A95E2F7282B28BB1D
:10047000089525B381E090E002C0880F991F4A9546
:10048000E2F7282B25BB089522B381E090E002C05B
:10049000880F991F4A95E2F7282B22BB0895323026
:1004A000B1F0333018F43130A9F505C03330D9F04C
:1004B000343081F524C02BB381E090E002C0880F76
:1004C000991F4A95E2F7809582238BBB089528B344
:1004D00081E090E002C0880F991F4A95E2F780956D
:1004E000822388BB089525B381E090E002C0880F85
:1004F000991F4A95E2F78095822385BB089522B320
:1005000081E090E002C0880F991F4A95E2F780953C
:10051000822382BB089586E161E00E9400018AE1A6
:100520008A95F1F786E162E00E94000180EA9FE08F
:100530000197F1F708951F93182F84E161E00E945D
:10054000000117FF03C081E161E002C081E162E0C8
:100550000E940001812F829586958695837080FF89
:1005600003C080E161E002C080E162E00E9400011E
:10057000812F82958695877080FF03C08FE061E0B0
:1005800002C08FE062E00E940001812F82958F708F
:1005900080FF03C08EE061E002C08EE062E00E9456
:1005A00000010E948B02812F86958695869580FF9B
:1005B00003C081E161E002C081E162E00E940001CC
:1005C000812F8695869580FF03C080E161E002C09F
:1005D00080E162E00E940001812F869580FF03C0C8
:1005E0008FE061E002C08FE062E00E94000110FF36
:1005F00003C08EE061E002C08EE062E00E94000174
:100600000E948B021F910895AF92BF92CF92DF920A
:10061000EF92FF920F931F93DF93CF93CDB7DEB787
:100620002C970FB6F894DEBF0FBECDBF6B017C01D7
:10063000611571058105910521F480E30E949B02FB
:1006400033C010E05E010894A11CB11CC501810FEC
:10065000911D9C878B87C701B6012AE030E040E0FE
:1006600050E00E94F605605DEB85FC856083C70164
:10067000B6012AE030E040E050E00E94F605C901F2
:10068000DA016C017D011F5FC114D104E104F104A2
:10069000E9F6012F07C0FE01E00FF11D80810E94E5
:1006A0009B0201500023B9F72C960FB6F894DEBFD9
:1006B0000FBECDBFCF91DF911F910F91FF90EF90B3
:1006C000DF90CF90BF90AF900895CF93DF93EC0170
:1006D00003C021960E949B0288818823D1F7DF9175
:1006E000CF9108951F93182F84E162E00E940001CA
:1006F00017FF03C081E161E002C081E162E00E9476
:100700000001812F829586958695837080FF03C0B6
:1007100080E161E002C080E162E00E940001812F7F
:1007200082958695877080FF03C08FE061E002C0EC
:100730008FE062E00E940001812F82958F7080FF20
:1007400003C08EE061E002C08EE062E00E94000122
:100750000E948B02812F86958695869580FF03C027
:1007600081E161E002C081E162E00E940001812F2D
:100770008695869580FF03C080E161E002C080E13C
:1007800062E00E940001812F869580FF03C08FE008
:1007900061E002C08FE062E00E94000110FF03C030
:1007A0008EE061E002C08EE062E00E9400010E94E3
:1007B0008B021F910895813019F0823051F405C0E9
:1007C000862F81580E9472030895862F81540E94BB
:1007D00072030895EF92FF920F931F937B018C0198
:1007E000842F622F0E94DB03C801B7010E9404031B
:1007F0001F910F91FF90EF9008950F931F938C011D
:10080000862F642F0E94DB03C8010E9465031F919D
:100810000F9108951F93182F862F642F0E94DB03DA
:10082000812F0E949B021F9108958EE061E00E943B
:1008300049008FE061E00E94490080E161E00E9490
:10084000490081E161E00E94490084E161E00E9489
:10085000490086E161E00E94490085E161E00E9473
:10086000490085E162E00E94000188EE93E028ECF7
:1008700030E0F9013197F1F70197D9F783E30E944E
:10088000720382E40E94720388E20E9472038EE087
:100890000E94720381E00E94720382E00E94720350
:1008A0000895AF92BF92DF92EF92FF920F931F9342
:1008B000CF93DF93DD2400E010E030E1A32E37E298
:1008C000B32E2EE1E22EE00E8E2D62E00E9400019A
:1008D000E801CC0FDD1FCC0FDD1FCD57DF4F82E2CB
:1008E000F82E8F2D0E94DA01882371F4C50101973B
:1008F000F1F78F2D0E94DA01882331F48F2D0E94A9
:10090000DA018823D9F3D880F394219686E2F81689
:1009100041F78E2D61E00E9400010F5F1F4F0430F0
:10092000110579F68D2DDF91CF911F910F91FF90D9
:10093000EF90DF90BF90AF9008958EE161E00E944C
:1009400049008FE161E00E94490080E261E00E947D
:10095000490081E261E00E94490082E262E00E9477
:10096000490083E262E00E94490084E262E00E9462
:10097000490085E262E00E94490083E06FEF0E9437
:10098000860108950F93CF93DF93FC01EB018081E3
:10099000A82FB0E0688131E00EC0CD0153E0880F90
:1009A000991F5A95E1F7AA0FBB1FA80FB91F8081A5
:1009B000A80FB11D3F5F3196341778F370E0FE0148
:1009C00031E00EC0CB0153E0880F991F5A95E1F733
:1009D000660F771F680F791F8081680F711D3F5F59
:1009E0003196321778F30F32E1F0003328F40B32EE
:1009F00041F00D3219F409C0083759F020E030E019
:100A000014C09B012A0F3B1F10C09D01261B370BF2
:100A10000CC06A9F90016B9F300D7A9F300D11249E
:100A200004C0CD010E94E2059B01C901DF91CF9175
:100A30000F910895DF92EF92FF920F931F93CF9340
:100A4000DF930E949D040E94150481E00E947203BE
:100A500080E690E061E041E00E94FD038EE261E00B
:100A600048E00E940A0400E21EE4C8010197F1F781
:100A70008EE261E049E00E940A04C8010197F1F7A3
:100A80008EE261E04AE00E940A04C8010197F1F792
:100A900080ED97E028EC30E0F9013197F1F701970C
:100AA000D9F781E00E94720388E690E061E041E0BE
:100AB0000E94FD0381E790E062E041E00E94FD03B7
:100AC00088E893E128EC30E0F9013197F1F70197DC
:100AD000D9F762E0D62EC8ECD0E081E00E94720324
:100AE000EE240E945104082F809382008D2D8A9558
:100AF000F1F70023B1F30B3231F00D3221F00F3258
:100B000011F0083749F41E2D1F5F802F61E0412F3F
:100B10000E940A04FF240FC0EE2DF0E0E856FF4FBC
:100B20000083E394602F70E080E090E041E02E2DA0
:100B30000E94EA03D6CF0E945104809382002D2D9B
:100B40002A95F1F78823B9F3212F2F5F8D33F9F41C
:100B500061E0422F0E940A0488E990E064E970E0B5
:100B60004E2D2F2D0E94C204A0E0B0E0BC01CD01AB
:100B700042E021E00E94EA0388EB9BE0FE0131970E
:100B8000F1F70197D9F781E00E947203A6CFEF2D0C
:100B9000F0E0EC56FF4F8083122FF394682F70E043
:100BA00080E090E041E00E94EA03C5CF991B79E024
:100BB00004C0991F961708F0961B881F7A95C9F7ED
:100BC00080950895AA1BBB1B51E107C0AA1FBB1F3C
:100BD000A617B70710F0A61BB70B881F991F5A95C9
:100BE000A9F780959095BC01CD010895A1E21A2E38
:100BF000AA1BBB1BFD010DC0AA1FBB1FEE1FFF1FC1
:100C0000A217B307E407F50720F0A21BB30BE40B10
:100C1000F50B661F771F881F991F1A9469F7609557
:100C20007095809590959B01AC01BD01CF01089511
:040C3000F894FFCF66
:100C34004C6F6164696E670057656C636F6D652105
:100C44000043616C63756C61746F722072656164DA
:100C54007900FF0708092F040506780102032D26F1
:040C6400303D2B00F4
:00000001FF
